{
  "contractName": "PrintGo",
  "abi": [
    {
      "inputs": [],
      "stateMutability": "nonpayable",
      "type": "constructor"
    },
    {
      "anonymous": false,
      "inputs": [
        {
          "indexed": true,
          "internalType": "address",
          "name": "owner",
          "type": "address"
        },
        {
          "indexed": true,
          "internalType": "address",
          "name": "approved",
          "type": "address"
        },
        {
          "indexed": true,
          "internalType": "uint256",
          "name": "tokenId",
          "type": "uint256"
        }
      ],
      "name": "Approval",
      "type": "event"
    },
    {
      "anonymous": false,
      "inputs": [
        {
          "indexed": true,
          "internalType": "address",
          "name": "owner",
          "type": "address"
        },
        {
          "indexed": true,
          "internalType": "address",
          "name": "operator",
          "type": "address"
        },
        {
          "indexed": false,
          "internalType": "bool",
          "name": "approved",
          "type": "bool"
        }
      ],
      "name": "ApprovalForAll",
      "type": "event"
    },
    {
      "anonymous": false,
      "inputs": [
        {
          "indexed": true,
          "internalType": "address",
          "name": "from",
          "type": "address"
        },
        {
          "indexed": true,
          "internalType": "address",
          "name": "to",
          "type": "address"
        },
        {
          "indexed": true,
          "internalType": "uint256",
          "name": "tokenId",
          "type": "uint256"
        }
      ],
      "name": "Transfer",
      "type": "event"
    },
    {
      "inputs": [
        {
          "internalType": "address",
          "name": "to",
          "type": "address"
        },
        {
          "internalType": "uint256",
          "name": "tokenId",
          "type": "uint256"
        }
      ],
      "name": "approve",
      "outputs": [],
      "stateMutability": "nonpayable",
      "type": "function"
    },
    {
      "inputs": [
        {
          "internalType": "address",
          "name": "owner",
          "type": "address"
        }
      ],
      "name": "balanceOf",
      "outputs": [
        {
          "internalType": "uint256",
          "name": "",
          "type": "uint256"
        }
      ],
      "stateMutability": "view",
      "type": "function",
      "constant": true
    },
    {
      "inputs": [
        {
          "internalType": "address",
          "name": "",
          "type": "address"
        }
      ],
      "name": "banList",
      "outputs": [
        {
          "internalType": "bool",
          "name": "",
          "type": "bool"
        }
      ],
      "stateMutability": "view",
      "type": "function",
      "constant": true
    },
    {
      "inputs": [
        {
          "internalType": "uint256",
          "name": "tokenId",
          "type": "uint256"
        }
      ],
      "name": "getApproved",
      "outputs": [
        {
          "internalType": "address",
          "name": "",
          "type": "address"
        }
      ],
      "stateMutability": "view",
      "type": "function",
      "constant": true
    },
    {
      "inputs": [
        {
          "internalType": "address",
          "name": "owner",
          "type": "address"
        },
        {
          "internalType": "address",
          "name": "operator",
          "type": "address"
        }
      ],
      "name": "isApprovedForAll",
      "outputs": [
        {
          "internalType": "bool",
          "name": "",
          "type": "bool"
        }
      ],
      "stateMutability": "view",
      "type": "function",
      "constant": true
    },
    {
      "inputs": [],
      "name": "name",
      "outputs": [
        {
          "internalType": "string",
          "name": "",
          "type": "string"
        }
      ],
      "stateMutability": "view",
      "type": "function",
      "constant": true
    },
    {
      "inputs": [
        {
          "internalType": "uint256",
          "name": "tokenId",
          "type": "uint256"
        }
      ],
      "name": "ownerOf",
      "outputs": [
        {
          "internalType": "address",
          "name": "",
          "type": "address"
        }
      ],
      "stateMutability": "view",
      "type": "function",
      "constant": true
    },
    {
      "inputs": [
        {
          "internalType": "address",
          "name": "from",
          "type": "address"
        },
        {
          "internalType": "address",
          "name": "to",
          "type": "address"
        },
        {
          "internalType": "uint256",
          "name": "tokenId",
          "type": "uint256"
        }
      ],
      "name": "safeTransferFrom",
      "outputs": [],
      "stateMutability": "nonpayable",
      "type": "function"
    },
    {
      "inputs": [
        {
          "internalType": "address",
          "name": "from",
          "type": "address"
        },
        {
          "internalType": "address",
          "name": "to",
          "type": "address"
        },
        {
          "internalType": "uint256",
          "name": "tokenId",
          "type": "uint256"
        },
        {
          "internalType": "bytes",
          "name": "_data",
          "type": "bytes"
        }
      ],
      "name": "safeTransferFrom",
      "outputs": [],
      "stateMutability": "nonpayable",
      "type": "function"
    },
    {
      "inputs": [
        {
          "internalType": "uint256",
          "name": "",
          "type": "uint256"
        }
      ],
      "name": "sales",
      "outputs": [
        {
          "internalType": "address",
          "name": "printer",
          "type": "address"
        },
        {
          "internalType": "address",
          "name": "buyer",
          "type": "address"
        },
        {
          "internalType": "uint256",
          "name": "price",
          "type": "uint256"
        }
      ],
      "stateMutability": "view",
      "type": "function",
      "constant": true
    },
    {
      "inputs": [
        {
          "internalType": "address",
          "name": "operator",
          "type": "address"
        },
        {
          "internalType": "bool",
          "name": "approved",
          "type": "bool"
        }
      ],
      "name": "setApprovalForAll",
      "outputs": [],
      "stateMutability": "nonpayable",
      "type": "function"
    },
    {
      "inputs": [
        {
          "internalType": "bytes4",
          "name": "interfaceId",
          "type": "bytes4"
        }
      ],
      "name": "supportsInterface",
      "outputs": [
        {
          "internalType": "bool",
          "name": "",
          "type": "bool"
        }
      ],
      "stateMutability": "view",
      "type": "function",
      "constant": true
    },
    {
      "inputs": [],
      "name": "symbol",
      "outputs": [
        {
          "internalType": "string",
          "name": "",
          "type": "string"
        }
      ],
      "stateMutability": "view",
      "type": "function",
      "constant": true
    },
    {
      "inputs": [
        {
          "internalType": "uint256",
          "name": "tokenId",
          "type": "uint256"
        }
      ],
      "name": "tokenURI",
      "outputs": [
        {
          "internalType": "string",
          "name": "",
          "type": "string"
        }
      ],
      "stateMutability": "view",
      "type": "function",
      "constant": true
    },
    {
      "inputs": [
        {
          "internalType": "address",
          "name": "from",
          "type": "address"
        },
        {
          "internalType": "address",
          "name": "to",
          "type": "address"
        },
        {
          "internalType": "uint256",
          "name": "tokenId",
          "type": "uint256"
        }
      ],
      "name": "transferFrom",
      "outputs": [],
      "stateMutability": "nonpayable",
      "type": "function"
    },
    {
      "inputs": [
        {
          "internalType": "address",
          "name": "_address",
          "type": "address"
        }
      ],
      "name": "isBanned",
      "outputs": [
        {
          "internalType": "bool",
          "name": "",
          "type": "bool"
        }
      ],
      "stateMutability": "view",
      "type": "function",
      "constant": true
    },
    {
      "inputs": [
        {
          "internalType": "address",
          "name": "_printer",
          "type": "address"
        }
      ],
      "name": "ban",
      "outputs": [
        {
          "internalType": "bool",
          "name": "",
          "type": "bool"
        }
      ],
      "stateMutability": "nonpayable",
      "type": "function"
    },
    {
      "inputs": [
        {
          "internalType": "address",
          "name": "_printer",
          "type": "address"
        },
        {
          "internalType": "address",
          "name": "_buyer",
          "type": "address"
        },
        {
          "internalType": "uint256",
          "name": "_price",
          "type": "uint256"
        }
      ],
      "name": "declareSale",
      "outputs": [
        {
          "internalType": "uint256",
          "name": "",
          "type": "uint256"
        }
      ],
      "stateMutability": "nonpayable",
      "type": "function"
    }
  ],
  "bytecode": "0x60806040523480156200001157600080fd5b506040518060400160405280600781526020017f5072696e74476f000000000000000000000000000000000000000000000000008152506040518060400160405280600381526020017f5054470000000000000000000000000000000000000000000000000000000000815250816000908051906020019062000096929190620000f9565b508060019080519060200190620000af929190620000f9565b50505033600960006101000a81548173ffffffffffffffffffffffffffffffffffffffff021916908373ffffffffffffffffffffffffffffffffffffffff1602179055506200020e565b8280546200010790620001a9565b90600052602060002090601f0160209004810192826200012b576000855562000177565b82601f106200014657805160ff191683800117855562000177565b8280016001018555821562000177579182015b828111156200017657825182559160200191906001019062000159565b5b5090506200018691906200018a565b5090565b5b80821115620001a55760008160009055506001016200018b565b5090565b60006002820490506001821680620001c257607f821691505b60208210811415620001d957620001d8620001df565b5b50919050565b7f4e487b7100000000000000000000000000000000000000000000000000000000600052602260045260246000fd5b612beb806200021e6000396000f3fe608060405234801561001057600080fd5b50600436106101165760003560e01c806395d89b41116100a2578063a78722dd11610071578063a78722dd14610317578063b5f522f714610347578063b88d4fde14610379578063c87b56dd14610395578063e985e9c5146103c557610116565b806395d89b411461027d57806397c3ccd81461029b57806397f735d5146102cb578063a22cb465146102fb57610116565b806323b872dd116100e957806323b872dd146101b5578063307bf9d5146101d157806342842e0e146102015780636352211e1461021d57806370a082311461024d57610116565b806301ffc9a71461011b57806306fdde031461014b578063081812fc14610169578063095ea7b314610199575b600080fd5b61013560048036038101906101309190611d64565b6103f5565b6040516101429190612553565b60405180910390f35b6101536104d7565b604051610160919061256e565b60405180910390f35b610183600480360381019061017e9190611db6565b610569565b60405161019091906124b5565b60405180910390f35b6101b360048036038101906101ae9190611d28565b6105ee565b005b6101cf60048036038101906101ca9190611c22565b610706565b005b6101eb60048036038101906101e69190611bbd565b610766565b6040516101f89190612553565b60405180910390f35b61021b60048036038101906102169190611c22565b610786565b005b61023760048036038101906102329190611db6565b6107a6565b60405161024491906124b5565b60405180910390f35b61026760048036038101906102629190611bbd565b610858565b60405161027491906127b0565b60405180910390f35b610285610910565b604051610292919061256e565b60405180910390f35b6102b560048036038101906102b09190611bbd565b6109a2565b6040516102c29190612553565b60405180910390f35b6102e560048036038101906102e09190611bbd565b610b29565b6040516102f29190612553565b60405180910390f35b61031560048036038101906103109190611cec565b610b7f565b005b610331600480360381019061032c9190611c22565b610d00565b60405161033e91906127b0565b60405180910390f35b610361600480360381019061035c9190611db6565b610e69565b604051610370939291906124d0565b60405180910390f35b610393600480360381019061038e9190611c71565b610ed3565b005b6103af60048036038101906103aa9190611db6565b610f35565b6040516103bc919061256e565b60405180910390f35b6103df60048036038101906103da9190611be6565b610fdc565b6040516103ec9190612553565b60405180910390f35b60007f80ac58cd000000000000000000000000000000000000000000000000000000007bffffffffffffffffffffffffffffffffffffffffffffffffffffffff1916827bffffffffffffffffffffffffffffffffffffffffffffffffffffffff191614806104c057507f5b5e139f000000000000000000000000000000000000000000000000000000007bffffffffffffffffffffffffffffffffffffffffffffffffffffffff1916827bffffffffffffffffffffffffffffffffffffffffffffffffffffffff1916145b806104d057506104cf82611070565b5b9050919050565b6060600080546104e6906129e0565b80601f0160208091040260200160405190810160405280929190818152602001828054610512906129e0565b801561055f5780601f106105345761010080835404028352916020019161055f565b820191906000526020600020905b81548152906001019060200180831161054257829003601f168201915b5050505050905090565b6000610574826110da565b6105b3576040517f08c379a00000000000000000000000000000000000000000000000000000000081526004016105aa906126d0565b60405180910390fd5b6004600083815260200190815260200160002060009054906101000a900473ffffffffffffffffffffffffffffffffffffffff169050919050565b60006105f9826107a6565b90508073ffffffffffffffffffffffffffffffffffffffff168373ffffffffffffffffffffffffffffffffffffffff16141561066a576040517f08c379a000000000000000000000000000000000000000000000000000000000815260040161066190612730565b60405180910390fd5b8073ffffffffffffffffffffffffffffffffffffffff16610689611146565b73ffffffffffffffffffffffffffffffffffffffff1614806106b857506106b7816106b2611146565b610fdc565b5b6106f7576040517f08c379a00000000000000000000000000000000000000000000000000000000081526004016106ee90612630565b60405180910390fd5b610701838361114e565b505050565b610717610711611146565b82611207565b610756576040517f08c379a000000000000000000000000000000000000000000000000000000000815260040161074d90612750565b60405180910390fd5b6107618383836112e5565b505050565b60076020528060005260406000206000915054906101000a900460ff1681565b6107a183838360405180602001604052806000815250610ed3565b505050565b6000806002600084815260200190815260200160002060009054906101000a900473ffffffffffffffffffffffffffffffffffffffff169050600073ffffffffffffffffffffffffffffffffffffffff168173ffffffffffffffffffffffffffffffffffffffff16141561084f576040517f08c379a000000000000000000000000000000000000000000000000000000000815260040161084690612690565b60405180910390fd5b80915050919050565b60008073ffffffffffffffffffffffffffffffffffffffff168273ffffffffffffffffffffffffffffffffffffffff1614156108c9576040517f08c379a00000000000000000000000000000000000000000000000000000000081526004016108c090612670565b60405180910390fd5b600360008373ffffffffffffffffffffffffffffffffffffffff1673ffffffffffffffffffffffffffffffffffffffff168152602001908152602001600020549050919050565b60606001805461091f906129e0565b80601f016020809104026020016040519081016040528092919081815260200182805461094b906129e0565b80156109985780601f1061096d57610100808354040283529160200191610998565b820191906000526020600020905b81548152906001019060200180831161097b57829003601f168201915b5050505050905090565b60006109ad82610b29565b156109ed576040517f08c379a00000000000000000000000000000000000000000000000000000000081526004016109e490612770565b60405180910390fd5b3373ffffffffffffffffffffffffffffffffffffffff16600960009054906101000a900473ffffffffffffffffffffffffffffffffffffffff1673ffffffffffffffffffffffffffffffffffffffff1614610a7d576040517f08c379a0000000000000000000000000000000000000000000000000000000008152600401610a7490612790565b60405180910390fd5b6001600760008473ffffffffffffffffffffffffffffffffffffffff1673ffffffffffffffffffffffffffffffffffffffff16815260200190815260200160002060006101000a81548160ff021916908315150217905550600760008373ffffffffffffffffffffffffffffffffffffffff1673ffffffffffffffffffffffffffffffffffffffff16815260200190815260200160002060009054906101000a900460ff169050919050565b6000600760008373ffffffffffffffffffffffffffffffffffffffff1673ffffffffffffffffffffffffffffffffffffffff16815260200190815260200160002060009054906101000a900460ff169050919050565b610b87611146565b73ffffffffffffffffffffffffffffffffffffffff168273ffffffffffffffffffffffffffffffffffffffff161415610bf5576040517f08c379a0000000000000000000000000000000000000000000000000000000008152600401610bec906125f0565b60405180910390fd5b8060056000610c02611146565b73ffffffffffffffffffffffffffffffffffffffff1673ffffffffffffffffffffffffffffffffffffffff16815260200190815260200160002060008473ffffffffffffffffffffffffffffffffffffffff1673ffffffffffffffffffffffffffffffffffffffff16815260200190815260200160002060006101000a81548160ff0219169083151502179055508173ffffffffffffffffffffffffffffffffffffffff16610caf611146565b73ffffffffffffffffffffffffffffffffffffffff167f17307eab39ab6107e8899845ad3d59bd9653f200f220920489ca2b5937696c3183604051610cf49190612553565b60405180910390a35050565b6000610d0b84610b29565b15610d4b576040517f08c379a0000000000000000000000000000000000000000000000000000000008152600401610d4290612650565b60405180910390fd5b6000610d576006611541565b9050600060405180606001604052808773ffffffffffffffffffffffffffffffffffffffff1681526020018673ffffffffffffffffffffffffffffffffffffffff168152602001858152509050806008600084815260200190815260200160002060008201518160000160006101000a81548173ffffffffffffffffffffffffffffffffffffffff021916908373ffffffffffffffffffffffffffffffffffffffff16021790555060208201518160010160006101000a81548173ffffffffffffffffffffffffffffffffffffffff021916908373ffffffffffffffffffffffffffffffffffffffff16021790555060408201518160020155905050610e5d338361154f565b81925050509392505050565b60086020528060005260406000206000915090508060000160009054906101000a900473ffffffffffffffffffffffffffffffffffffffff16908060010160009054906101000a900473ffffffffffffffffffffffffffffffffffffffff16908060020154905083565b610ee4610ede611146565b83611207565b610f23576040517f08c379a0000000000000000000000000000000000000000000000000000000008152600401610f1a90612750565b60405180910390fd5b610f2f8484848461171d565b50505050565b6060610f40826110da565b610f7f576040517f08c379a0000000000000000000000000000000000000000000000000000000008152600401610f7690612710565b60405180910390fd5b6000610f89611779565b90506000815111610fa95760405180602001604052806000815250610fd4565b80610fb384611790565b604051602001610fc4929190612491565b6040516020818303038152906040525b915050919050565b6000600560008473ffffffffffffffffffffffffffffffffffffffff1673ffffffffffffffffffffffffffffffffffffffff16815260200190815260200160002060008373ffffffffffffffffffffffffffffffffffffffff1673ffffffffffffffffffffffffffffffffffffffff16815260200190815260200160002060009054906101000a900460ff16905092915050565b60007f01ffc9a7000000000000000000000000000000000000000000000000000000007bffffffffffffffffffffffffffffffffffffffffffffffffffffffff1916827bffffffffffffffffffffffffffffffffffffffffffffffffffffffff1916149050919050565b60008073ffffffffffffffffffffffffffffffffffffffff166002600084815260200190815260200160002060009054906101000a900473ffffffffffffffffffffffffffffffffffffffff1673ffffffffffffffffffffffffffffffffffffffff1614159050919050565b600033905090565b816004600083815260200190815260200160002060006101000a81548173ffffffffffffffffffffffffffffffffffffffff021916908373ffffffffffffffffffffffffffffffffffffffff160217905550808273ffffffffffffffffffffffffffffffffffffffff166111c1836107a6565b73ffffffffffffffffffffffffffffffffffffffff167f8c5be1e5ebec7d5bd14f71427d1e84f3dd0314c0f7b2291e5b200ac8c7c3b92560405160405180910390a45050565b6000611212826110da565b611251576040517f08c379a000000000000000000000000000000000000000000000000000000000815260040161124890612610565b60405180910390fd5b600061125c836107a6565b90508073ffffffffffffffffffffffffffffffffffffffff168473ffffffffffffffffffffffffffffffffffffffff1614806112cb57508373ffffffffffffffffffffffffffffffffffffffff166112b384610569565b73ffffffffffffffffffffffffffffffffffffffff16145b806112dc57506112db8185610fdc565b5b91505092915050565b8273ffffffffffffffffffffffffffffffffffffffff16611305826107a6565b73ffffffffffffffffffffffffffffffffffffffff161461135b576040517f08c379a0000000000000000000000000000000000000000000000000000000008152600401611352906126f0565b60405180910390fd5b600073ffffffffffffffffffffffffffffffffffffffff168273ffffffffffffffffffffffffffffffffffffffff1614156113cb576040517f08c379a00000000000000000000000000000000000000000000000000000000081526004016113c2906125d0565b60405180910390fd5b6113d683838361193d565b6113e160008261114e565b6001600360008573ffffffffffffffffffffffffffffffffffffffff1673ffffffffffffffffffffffffffffffffffffffff168152602001908152602001600020600082825461143191906128f6565b925050819055506001600360008473ffffffffffffffffffffffffffffffffffffffff1673ffffffffffffffffffffffffffffffffffffffff1681526020019081526020016000206000828254611488919061286f565b92505081905550816002600083815260200190815260200160002060006101000a81548173ffffffffffffffffffffffffffffffffffffffff021916908373ffffffffffffffffffffffffffffffffffffffff160217905550808273ffffffffffffffffffffffffffffffffffffffff168473ffffffffffffffffffffffffffffffffffffffff167fddf252ad1be2c89b69c2b068fc378daa952ba7f163c4a11628f55a4df523b3ef60405160405180910390a4505050565b600081600001549050919050565b600073ffffffffffffffffffffffffffffffffffffffff168273ffffffffffffffffffffffffffffffffffffffff1614156115bf576040517f08c379a00000000000000000000000000000000000000000000000000000000081526004016115b6906126b0565b60405180910390fd5b6115c8816110da565b15611608576040517f08c379a00000000000000000000000000000000000000000000000000000000081526004016115ff906125b0565b60405180910390fd5b6116146000838361193d565b6001600360008473ffffffffffffffffffffffffffffffffffffffff1673ffffffffffffffffffffffffffffffffffffffff1681526020019081526020016000206000828254611664919061286f565b92505081905550816002600083815260200190815260200160002060006101000a81548173ffffffffffffffffffffffffffffffffffffffff021916908373ffffffffffffffffffffffffffffffffffffffff160217905550808273ffffffffffffffffffffffffffffffffffffffff16600073ffffffffffffffffffffffffffffffffffffffff167fddf252ad1be2c89b69c2b068fc378daa952ba7f163c4a11628f55a4df523b3ef60405160405180910390a45050565b6117288484846112e5565b61173484848484611942565b611773576040517f08c379a000000000000000000000000000000000000000000000000000000000815260040161176a90612590565b60405180910390fd5b50505050565b606060405180602001604052806000815250905090565b606060008214156117d8576040518060400160405280600181526020017f30000000000000000000000000000000000000000000000000000000000000008152509050611938565b600082905060005b6000821461180a5780806117f390612a12565b915050600a8261180391906128c5565b91506117e0565b60008167ffffffffffffffff81111561184c577f4e487b7100000000000000000000000000000000000000000000000000000000600052604160045260246000fd5b6040519080825280601f01601f19166020018201604052801561187e5781602001600182028036833780820191505090505b5090505b600085146119315760018261189791906128f6565b9150600a856118a69190612a5b565b60306118b2919061286f565b60f81b8183815181106118ee577f4e487b7100000000000000000000000000000000000000000000000000000000600052603260045260246000fd5b60200101907effffffffffffffffffffffffffffffffffffffffffffffffffffffffffffff1916908160001a905350600a8561192a91906128c5565b9450611882565b8093505050505b919050565b505050565b60006119638473ffffffffffffffffffffffffffffffffffffffff16611ad9565b15611acc578373ffffffffffffffffffffffffffffffffffffffff1663150b7a0261198c611146565b8786866040518563ffffffff1660e01b81526004016119ae9493929190612507565b602060405180830381600087803b1580156119c857600080fd5b505af19250505080156119f957506040513d601f19601f820116820180604052508101906119f69190611d8d565b60015b611a7c573d8060008114611a29576040519150601f19603f3d011682016040523d82523d6000602084013e611a2e565b606091505b50600081511415611a74576040517f08c379a0000000000000000000000000000000000000000000000000000000008152600401611a6b90612590565b60405180910390fd5b805181602001fd5b63150b7a0260e01b7bffffffffffffffffffffffffffffffffffffffffffffffffffffffff1916817bffffffffffffffffffffffffffffffffffffffffffffffffffffffff191614915050611ad1565b600190505b949350505050565b600080823b905060008111915050919050565b6000611aff611afa846127fc565b6127cb565b905082815260208101848484011115611b1757600080fd5b611b2284828561299e565b509392505050565b600081359050611b3981612b59565b92915050565b600081359050611b4e81612b70565b92915050565b600081359050611b6381612b87565b92915050565b600081519050611b7881612b87565b92915050565b600082601f830112611b8f57600080fd5b8135611b9f848260208601611aec565b91505092915050565b600081359050611bb781612b9e565b92915050565b600060208284031215611bcf57600080fd5b6000611bdd84828501611b2a565b91505092915050565b60008060408385031215611bf957600080fd5b6000611c0785828601611b2a565b9250506020611c1885828601611b2a565b9150509250929050565b600080600060608486031215611c3757600080fd5b6000611c4586828701611b2a565b9350506020611c5686828701611b2a565b9250506040611c6786828701611ba8565b9150509250925092565b60008060008060808587031215611c8757600080fd5b6000611c9587828801611b2a565b9450506020611ca687828801611b2a565b9350506040611cb787828801611ba8565b925050606085013567ffffffffffffffff811115611cd457600080fd5b611ce087828801611b7e565b91505092959194509250565b60008060408385031215611cff57600080fd5b6000611d0d85828601611b2a565b9250506020611d1e85828601611b3f565b9150509250929050565b60008060408385031215611d3b57600080fd5b6000611d4985828601611b2a565b9250506020611d5a85828601611ba8565b9150509250929050565b600060208284031215611d7657600080fd5b6000611d8484828501611b54565b91505092915050565b600060208284031215611d9f57600080fd5b6000611dad84828501611b69565b91505092915050565b600060208284031215611dc857600080fd5b6000611dd684828501611ba8565b91505092915050565b611de88161292a565b82525050565b611df78161293c565b82525050565b6000611e088261282c565b611e128185612842565b9350611e228185602086016129ad565b611e2b81612b48565b840191505092915050565b6000611e4182612837565b611e4b8185612853565b9350611e5b8185602086016129ad565b611e6481612b48565b840191505092915050565b6000611e7a82612837565b611e848185612864565b9350611e948185602086016129ad565b80840191505092915050565b6000611ead603283612853565b91507f4552433732313a207472616e7366657220746f206e6f6e20455243373231526560008301527f63656976657220696d706c656d656e74657200000000000000000000000000006020830152604082019050919050565b6000611f13601c83612853565b91507f4552433732313a20746f6b656e20616c7265616479206d696e746564000000006000830152602082019050919050565b6000611f53602483612853565b91507f4552433732313a207472616e7366657220746f20746865207a65726f2061646460008301527f72657373000000000000000000000000000000000000000000000000000000006020830152604082019050919050565b6000611fb9601983612853565b91507f4552433732313a20617070726f766520746f2063616c6c6572000000000000006000830152602082019050919050565b6000611ff9602c83612853565b91507f4552433732313a206f70657261746f7220717565727920666f72206e6f6e657860008301527f697374656e7420746f6b656e00000000000000000000000000000000000000006020830152604082019050919050565b600061205f603883612853565b91507f4552433732313a20617070726f76652063616c6c6572206973206e6f74206f7760008301527f6e6572206e6f7220617070726f76656420666f7220616c6c00000000000000006020830152604082019050919050565b60006120c5600683612853565b91507f42616e6e656400000000000000000000000000000000000000000000000000006000830152602082019050919050565b6000612105602a83612853565b91507f4552433732313a2062616c616e636520717565727920666f7220746865207a6560008301527f726f2061646472657373000000000000000000000000000000000000000000006020830152604082019050919050565b600061216b602983612853565b91507f4552433732313a206f776e657220717565727920666f72206e6f6e657869737460008301527f656e7420746f6b656e00000000000000000000000000000000000000000000006020830152604082019050919050565b60006121d1602083612853565b91507f4552433732313a206d696e7420746f20746865207a65726f20616464726573736000830152602082019050919050565b6000612211602c83612853565b91507f4552433732313a20617070726f76656420717565727920666f72206e6f6e657860008301527f697374656e7420746f6b656e00000000000000000000000000000000000000006020830152604082019050919050565b6000612277602983612853565b91507f4552433732313a207472616e73666572206f6620746f6b656e2074686174206960008301527f73206e6f74206f776e00000000000000000000000000000000000000000000006020830152604082019050919050565b60006122dd602f83612853565b91507f4552433732314d657461646174613a2055524920717565727920666f72206e6f60008301527f6e6578697374656e7420746f6b656e00000000000000000000000000000000006020830152604082019050919050565b6000612343602183612853565b91507f4552433732313a20617070726f76616c20746f2063757272656e74206f776e6560008301527f72000000000000000000000000000000000000000000000000000000000000006020830152604082019050919050565b60006123a9603183612853565b91507f4552433732313a207472616e736665722063616c6c6572206973206e6f74206f60008301527f776e6572206e6f7220617070726f7665640000000000000000000000000000006020830152604082019050919050565b600061240f600e83612853565b91507f416c72656164792062616e6e65640000000000000000000000000000000000006000830152602082019050919050565b600061244f600983612853565b91507f4e6f742061646d696e00000000000000000000000000000000000000000000006000830152602082019050919050565b61248b81612994565b82525050565b600061249d8285611e6f565b91506124a98284611e6f565b91508190509392505050565b60006020820190506124ca6000830184611ddf565b92915050565b60006060820190506124e56000830186611ddf565b6124f26020830185611ddf565b6124ff6040830184612482565b949350505050565b600060808201905061251c6000830187611ddf565b6125296020830186611ddf565b6125366040830185612482565b81810360608301526125488184611dfd565b905095945050505050565b60006020820190506125686000830184611dee565b92915050565b600060208201905081810360008301526125888184611e36565b905092915050565b600060208201905081810360008301526125a981611ea0565b9050919050565b600060208201905081810360008301526125c981611f06565b9050919050565b600060208201905081810360008301526125e981611f46565b9050919050565b6000602082019050818103600083015261260981611fac565b9050919050565b6000602082019050818103600083015261262981611fec565b9050919050565b6000602082019050818103600083015261264981612052565b9050919050565b60006020820190508181036000830152612669816120b8565b9050919050565b60006020820190508181036000830152612689816120f8565b9050919050565b600060208201905081810360008301526126a98161215e565b9050919050565b600060208201905081810360008301526126c9816121c4565b9050919050565b600060208201905081810360008301526126e981612204565b9050919050565b600060208201905081810360008301526127098161226a565b9050919050565b60006020820190508181036000830152612729816122d0565b9050919050565b6000602082019050818103600083015261274981612336565b9050919050565b600060208201905081810360008301526127698161239c565b9050919050565b6000602082019050818103600083015261278981612402565b9050919050565b600060208201905081810360008301526127a981612442565b9050919050565b60006020820190506127c56000830184612482565b92915050565b6000604051905081810181811067ffffffffffffffff821117156127f2576127f1612b19565b5b8060405250919050565b600067ffffffffffffffff82111561281757612816612b19565b5b601f19601f8301169050602081019050919050565b600081519050919050565b600081519050919050565b600082825260208201905092915050565b600082825260208201905092915050565b600081905092915050565b600061287a82612994565b915061288583612994565b9250827fffffffffffffffffffffffffffffffffffffffffffffffffffffffffffffffff038211156128ba576128b9612a8c565b5b828201905092915050565b60006128d082612994565b91506128db83612994565b9250826128eb576128ea612abb565b5b828204905092915050565b600061290182612994565b915061290c83612994565b92508282101561291f5761291e612a8c565b5b828203905092915050565b600061293582612974565b9050919050565b60008115159050919050565b60007fffffffff0000000000000000000000000000000000000000000000000000000082169050919050565b600073ffffffffffffffffffffffffffffffffffffffff82169050919050565b6000819050919050565b82818337600083830152505050565b60005b838110156129cb5780820151818401526020810190506129b0565b838111156129da576000848401525b50505050565b600060028204905060018216806129f857607f821691505b60208210811415612a0c57612a0b612aea565b5b50919050565b6000612a1d82612994565b91507fffffffffffffffffffffffffffffffffffffffffffffffffffffffffffffffff821415612a5057612a4f612a8c565b5b600182019050919050565b6000612a6682612994565b9150612a7183612994565b925082612a8157612a80612abb565b5b828206905092915050565b7f4e487b7100000000000000000000000000000000000000000000000000000000600052601160045260246000fd5b7f4e487b7100000000000000000000000000000000000000000000000000000000600052601260045260246000fd5b7f4e487b7100000000000000000000000000000000000000000000000000000000600052602260045260246000fd5b7f4e487b7100000000000000000000000000000000000000000000000000000000600052604160045260246000fd5b6000601f19601f8301169050919050565b612b628161292a565b8114612b6d57600080fd5b50565b612b798161293c565b8114612b8457600080fd5b50565b612b9081612948565b8114612b9b57600080fd5b50565b612ba781612994565b8114612bb257600080fd5b5056fea26469706673582212208053352818fc0b2d2fde61ed68a58642d20ac6c58a62230e713f0efa3ec2ac1864736f6c63430008000033",
  "immutableReferences": {},
  "source": "pragma solidity ^0.8.0;\r\n\r\nimport \"@openzeppelin/contracts/token/ERC721/ERC721.sol\";\r\nimport \"@openzeppelin/contracts/utils/Counters.sol\";\r\n\r\ncontract PrintGo is ERC721 {\r\n    struct Sale {\r\n        address printer;\r\n        address buyer;\r\n        uint256 price;\r\n    }\r\n    using Address for address;\r\n    using Counters for Counters.Counter;\r\n    using Strings for uint256;\r\n    Counters.Counter private _tokenIds;\r\n    mapping(address => bool) public banList;\r\n    mapping(uint256 => Sale) public sales;\r\n    address owner;\r\n\r\n    constructor() public ERC721(\"PrintGo\", \"PTG\") {\r\n        owner = msg.sender;\r\n    }\r\n\r\n    function isBanned(address _address) public view returns (bool) {\r\n        return banList[_address];\r\n    }\r\n\r\n    function ban(address _printer) public returns (bool) {\r\n        require(!isBanned(_printer), \"Already banned\");\r\n        require(owner == msg.sender, \"Not admin\");\r\n        banList[_printer] = true;\r\n        return banList[_printer];\r\n    }\r\n\r\n    function declareSale(address _printer, address _buyer, uint256 _price) public returns (uint256) {\r\n        require(!isBanned(_printer), \"Banned\");\r\n        uint256 tokenId = _tokenIds.current();\r\n        Sale memory token = Sale(_printer, _buyer, _price);\r\n        sales[tokenId] = token;\r\n        _mint(msg.sender, tokenId);\r\n        return tokenId;\r\n    }\r\n}\r\n",
  "sourcePath": "C:/Users/ybenh/Desktop/print'n'go2/solidity/contracts/PrintGo.sol",
  "compiler": {
    "name": "solc",
    "version": "0.8.0+commit.c7dfd78e.Emscripten.clang"
  },
  "schemaVersion": "3.4.1",
  "updatedAt": "2021-05-13T12:05:34.478Z",
  "networkType": "ethereum",
  "devdoc": {
    "kind": "dev",
    "methods": {
      "approve(address,uint256)": {
        "details": "See {IERC721-approve}."
      },
      "balanceOf(address)": {
        "details": "See {IERC721-balanceOf}."
      },
      "getApproved(uint256)": {
        "details": "See {IERC721-getApproved}."
      },
      "isApprovedForAll(address,address)": {
        "details": "See {IERC721-isApprovedForAll}."
      },
      "name()": {
        "details": "See {IERC721Metadata-name}."
      },
      "ownerOf(uint256)": {
        "details": "See {IERC721-ownerOf}."
      },
      "safeTransferFrom(address,address,uint256)": {
        "details": "See {IERC721-safeTransferFrom}."
      },
      "safeTransferFrom(address,address,uint256,bytes)": {
        "details": "See {IERC721-safeTransferFrom}."
      },
      "setApprovalForAll(address,bool)": {
        "details": "See {IERC721-setApprovalForAll}."
      },
      "supportsInterface(bytes4)": {
        "details": "See {IERC165-supportsInterface}."
      },
      "symbol()": {
        "details": "See {IERC721Metadata-symbol}."
      },
      "tokenURI(uint256)": {
        "details": "See {IERC721Metadata-tokenURI}."
      },
      "transferFrom(address,address,uint256)": {
        "details": "See {IERC721-transferFrom}."
      }
    },
    "version": 1
  },
  "userdoc": {
    "kind": "user",
    "methods": {},
    "version": 1
  }
}