{
  "contractName": "PrintGo",
  "abi": [
    {
      "inputs": [],
      "stateMutability": "nonpayable",
      "type": "constructor"
    },
    {
      "anonymous": false,
      "inputs": [
        {
          "indexed": true,
          "internalType": "address",
          "name": "owner",
          "type": "address"
        },
        {
          "indexed": true,
          "internalType": "address",
          "name": "approved",
          "type": "address"
        },
        {
          "indexed": true,
          "internalType": "uint256",
          "name": "tokenId",
          "type": "uint256"
        }
      ],
      "name": "Approval",
      "type": "event"
    },
    {
      "anonymous": false,
      "inputs": [
        {
          "indexed": true,
          "internalType": "address",
          "name": "owner",
          "type": "address"
        },
        {
          "indexed": true,
          "internalType": "address",
          "name": "operator",
          "type": "address"
        },
        {
          "indexed": false,
          "internalType": "bool",
          "name": "approved",
          "type": "bool"
        }
      ],
      "name": "ApprovalForAll",
      "type": "event"
    },
    {
      "anonymous": false,
      "inputs": [
        {
          "indexed": true,
          "internalType": "address",
          "name": "from",
          "type": "address"
        },
        {
          "indexed": true,
          "internalType": "address",
          "name": "to",
          "type": "address"
        },
        {
          "indexed": true,
          "internalType": "uint256",
          "name": "tokenId",
          "type": "uint256"
        }
      ],
      "name": "Transfer",
      "type": "event"
    },
    {
      "inputs": [
        {
          "internalType": "address",
          "name": "to",
          "type": "address"
        },
        {
          "internalType": "uint256",
          "name": "tokenId",
          "type": "uint256"
        }
      ],
      "name": "approve",
      "outputs": [],
      "stateMutability": "nonpayable",
      "type": "function"
    },
    {
      "inputs": [
        {
          "internalType": "address",
          "name": "owner",
          "type": "address"
        }
      ],
      "name": "balanceOf",
      "outputs": [
        {
          "internalType": "uint256",
          "name": "",
          "type": "uint256"
        }
      ],
      "stateMutability": "view",
      "type": "function",
      "constant": true
    },
    {
      "inputs": [
        {
          "internalType": "uint256",
          "name": "tokenId",
          "type": "uint256"
        }
      ],
      "name": "getApproved",
      "outputs": [
        {
          "internalType": "address",
          "name": "",
          "type": "address"
        }
      ],
      "stateMutability": "view",
      "type": "function",
      "constant": true
    },
    {
      "inputs": [
        {
          "internalType": "address",
          "name": "owner",
          "type": "address"
        },
        {
          "internalType": "address",
          "name": "operator",
          "type": "address"
        }
      ],
      "name": "isApprovedForAll",
      "outputs": [
        {
          "internalType": "bool",
          "name": "",
          "type": "bool"
        }
      ],
      "stateMutability": "view",
      "type": "function",
      "constant": true
    },
    {
      "inputs": [],
      "name": "name",
      "outputs": [
        {
          "internalType": "string",
          "name": "",
          "type": "string"
        }
      ],
      "stateMutability": "view",
      "type": "function",
      "constant": true
    },
    {
      "inputs": [
        {
          "internalType": "uint256",
          "name": "tokenId",
          "type": "uint256"
        }
      ],
      "name": "ownerOf",
      "outputs": [
        {
          "internalType": "address",
          "name": "",
          "type": "address"
        }
      ],
      "stateMutability": "view",
      "type": "function",
      "constant": true
    },
    {
      "inputs": [
        {
          "internalType": "address",
          "name": "from",
          "type": "address"
        },
        {
          "internalType": "address",
          "name": "to",
          "type": "address"
        },
        {
          "internalType": "uint256",
          "name": "tokenId",
          "type": "uint256"
        }
      ],
      "name": "safeTransferFrom",
      "outputs": [],
      "stateMutability": "nonpayable",
      "type": "function"
    },
    {
      "inputs": [
        {
          "internalType": "address",
          "name": "from",
          "type": "address"
        },
        {
          "internalType": "address",
          "name": "to",
          "type": "address"
        },
        {
          "internalType": "uint256",
          "name": "tokenId",
          "type": "uint256"
        },
        {
          "internalType": "bytes",
          "name": "_data",
          "type": "bytes"
        }
      ],
      "name": "safeTransferFrom",
      "outputs": [],
      "stateMutability": "nonpayable",
      "type": "function"
    },
    {
      "inputs": [
        {
          "internalType": "address",
          "name": "operator",
          "type": "address"
        },
        {
          "internalType": "bool",
          "name": "approved",
          "type": "bool"
        }
      ],
      "name": "setApprovalForAll",
      "outputs": [],
      "stateMutability": "nonpayable",
      "type": "function"
    },
    {
      "inputs": [
        {
          "internalType": "bytes4",
          "name": "interfaceId",
          "type": "bytes4"
        }
      ],
      "name": "supportsInterface",
      "outputs": [
        {
          "internalType": "bool",
          "name": "",
          "type": "bool"
        }
      ],
      "stateMutability": "view",
      "type": "function",
      "constant": true
    },
    {
      "inputs": [],
      "name": "symbol",
      "outputs": [
        {
          "internalType": "string",
          "name": "",
          "type": "string"
        }
      ],
      "stateMutability": "view",
      "type": "function",
      "constant": true
    },
    {
      "inputs": [
        {
          "internalType": "uint256",
          "name": "tokenId",
          "type": "uint256"
        }
      ],
      "name": "tokenURI",
      "outputs": [
        {
          "internalType": "string",
          "name": "",
          "type": "string"
        }
      ],
      "stateMutability": "view",
      "type": "function",
      "constant": true
    },
    {
      "inputs": [
        {
          "internalType": "address",
          "name": "from",
          "type": "address"
        },
        {
          "internalType": "address",
          "name": "to",
          "type": "address"
        },
        {
          "internalType": "uint256",
          "name": "tokenId",
          "type": "uint256"
        }
      ],
      "name": "transferFrom",
      "outputs": [],
      "stateMutability": "nonpayable",
      "type": "function"
    },
    {
      "inputs": [
        {
          "internalType": "bytes32",
          "name": "_ipAddress",
          "type": "bytes32"
        },
        {
          "internalType": "string",
          "name": "_log",
          "type": "string"
        }
      ],
      "name": "declareLog",
      "outputs": [
        {
          "internalType": "uint256",
          "name": "",
          "type": "uint256"
        }
      ],
      "stateMutability": "nonpayable",
      "type": "function"
    },
    {
      "inputs": [
        {
          "internalType": "uint256",
          "name": "_tokenId",
          "type": "uint256"
        }
      ],
      "name": "getLog",
      "outputs": [
        {
          "internalType": "string",
          "name": "",
          "type": "string"
        }
      ],
      "stateMutability": "nonpayable",
      "type": "function"
    },
    {
      "inputs": [
        {
          "internalType": "uint256",
          "name": "_tokenId",
          "type": "uint256"
        }
      ],
      "name": "getIp",
      "outputs": [
        {
          "internalType": "bytes32",
          "name": "",
          "type": "bytes32"
        }
      ],
      "stateMutability": "nonpayable",
      "type": "function"
    }
  ],
  "bytecode": "0x60806040523480156200001157600080fd5b506040518060400160405280600781526020017f5072696e74476f000000000000000000000000000000000000000000000000008152506040518060400160405280600381526020017f5054470000000000000000000000000000000000000000000000000000000000815250816000908051906020019062000096929190620000f9565b508060019080519060200190620000af929190620000f9565b50505033600860006101000a81548173ffffffffffffffffffffffffffffffffffffffff021916908373ffffffffffffffffffffffffffffffffffffffff1602179055506200020e565b8280546200010790620001a9565b90600052602060002090601f0160209004810192826200012b576000855562000177565b82601f106200014657805160ff191683800117855562000177565b8280016001018555821562000177579182015b828111156200017657825182559160200191906001019062000159565b5b5090506200018691906200018a565b5090565b5b80821115620001a55760008160009055506001016200018b565b5090565b60006002820490506001821680620001c257607f821691505b60208210811415620001d957620001d8620001df565b5b50919050565b7f4e487b7100000000000000000000000000000000000000000000000000000000600052602260045260246000fd5b612ba9806200021e6000396000f3fe608060405234801561001057600080fd5b50600436106101005760003560e01c80636352211e11610097578063b88d4fde11610066578063b88d4fde146102d1578063c87b56dd146102ed578063de3cc3771461031d578063e985e9c51461034d57610100565b80636352211e1461023757806370a082311461026757806395d89b4114610297578063a22cb465146102b557610100565b8063095ea7b3116100d3578063095ea7b3146101b357806323b872dd146101cf5780633206b2c6146101eb57806342842e0e1461021b57610100565b806301ffc9a714610105578063026e99081461013557806306fdde0314610165578063081812fc14610183575b600080fd5b61011f600480360381019061011a9190611d9e565b61037d565b60405161012c91906124e5565b60405180910390f35b61014f600480360381019061014a9190611df0565b61045f565b60405161015c9190612500565b60405180910390f35b61016d610523565b60405161017a919061251b565b60405180910390f35b61019d60048036038101906101989190611df0565b6105b5565b6040516101aa919061247e565b60405180910390f35b6101cd60048036038101906101c89190611d0e565b61063a565b005b6101e960048036038101906101e49190611c08565b610752565b005b61020560048036038101906102009190611df0565b6107b2565b604051610212919061251b565b60405180910390f35b61023560048036038101906102309190611c08565b6108fe565b005b610251600480360381019061024c9190611df0565b61091e565b60405161025e919061247e565b60405180910390f35b610281600480360381019061027c9190611ba3565b6109d0565b60405161028e919061271d565b60405180910390f35b61029f610a88565b6040516102ac919061251b565b60405180910390f35b6102cf60048036038101906102ca9190611cd2565b610b1a565b005b6102eb60048036038101906102e69190611c57565b610c9b565b005b61030760048036038101906103029190611df0565b610cfd565b604051610314919061251b565b60405180910390f35b61033760048036038101906103329190611d4a565b610da4565b604051610344919061271d565b60405180910390f35b61036760048036038101906103629190611bcc565b610e8c565b60405161037491906124e5565b60405180910390f35b60007f80ac58cd000000000000000000000000000000000000000000000000000000007bffffffffffffffffffffffffffffffffffffffffffffffffffffffff1916827bffffffffffffffffffffffffffffffffffffffffffffffffffffffff1916148061044857507f5b5e139f000000000000000000000000000000000000000000000000000000007bffffffffffffffffffffffffffffffffffffffffffffffffffffffff1916827bffffffffffffffffffffffffffffffffffffffffffffffffffffffff1916145b80610458575061045782610f20565b5b9050919050565b60003373ffffffffffffffffffffffffffffffffffffffff166007600084815260200190815260200160002060020160009054906101000a900473ffffffffffffffffffffffffffffffffffffffff1673ffffffffffffffffffffffffffffffffffffffff1614610505576040517f08c379a00000000000000000000000000000000000000000000000000000000081526004016104fc906125bd565b60405180910390fd5b60076000838152602001908152602001600020600001549050919050565b60606000805461053290612987565b80601f016020809104026020016040519081016040528092919081815260200182805461055e90612987565b80156105ab5780601f10610580576101008083540402835291602001916105ab565b820191906000526020600020905b81548152906001019060200180831161058e57829003601f168201915b5050505050905090565b60006105c082610f8a565b6105ff576040517f08c379a00000000000000000000000000000000000000000000000000000000081526004016105f69061267d565b60405180910390fd5b6004600083815260200190815260200160002060009054906101000a900473ffffffffffffffffffffffffffffffffffffffff169050919050565b60006106458261091e565b90508073ffffffffffffffffffffffffffffffffffffffff168373ffffffffffffffffffffffffffffffffffffffff1614156106b6576040517f08c379a00000000000000000000000000000000000000000000000000000000081526004016106ad906126dd565b60405180910390fd5b8073ffffffffffffffffffffffffffffffffffffffff166106d5610ff6565b73ffffffffffffffffffffffffffffffffffffffff1614806107045750610703816106fe610ff6565b610e8c565b5b610743576040517f08c379a000000000000000000000000000000000000000000000000000000000815260040161073a906125fd565b60405180910390fd5b61074d8383610ffe565b505050565b61076361075d610ff6565b826110b7565b6107a2576040517f08c379a0000000000000000000000000000000000000000000000000000000008152600401610799906126fd565b60405180910390fd5b6107ad838383611195565b505050565b60603373ffffffffffffffffffffffffffffffffffffffff166007600084815260200190815260200160002060020160009054906101000a900473ffffffffffffffffffffffffffffffffffffffff1673ffffffffffffffffffffffffffffffffffffffff1614610858576040517f08c379a000000000000000000000000000000000000000000000000000000000815260040161084f906125bd565b60405180910390fd5b60076000838152602001908152602001600020600101805461087990612987565b80601f01602080910402602001604051908101604052809291908181526020018280546108a590612987565b80156108f25780601f106108c7576101008083540402835291602001916108f2565b820191906000526020600020905b8154815290600101906020018083116108d557829003601f168201915b50505050509050919050565b61091983838360405180602001604052806000815250610c9b565b505050565b6000806002600084815260200190815260200160002060009054906101000a900473ffffffffffffffffffffffffffffffffffffffff169050600073ffffffffffffffffffffffffffffffffffffffff168173ffffffffffffffffffffffffffffffffffffffff1614156109c7576040517f08c379a00000000000000000000000000000000000000000000000000000000081526004016109be9061263d565b60405180910390fd5b80915050919050565b60008073ffffffffffffffffffffffffffffffffffffffff168273ffffffffffffffffffffffffffffffffffffffff161415610a41576040517f08c379a0000000000000000000000000000000000000000000000000000000008152600401610a389061261d565b60405180910390fd5b600360008373ffffffffffffffffffffffffffffffffffffffff1673ffffffffffffffffffffffffffffffffffffffff168152602001908152602001600020549050919050565b606060018054610a9790612987565b80601f0160208091040260200160405190810160405280929190818152602001828054610ac390612987565b8015610b105780601f10610ae557610100808354040283529160200191610b10565b820191906000526020600020905b815481529060010190602001808311610af357829003601f168201915b5050505050905090565b610b22610ff6565b73ffffffffffffffffffffffffffffffffffffffff168273ffffffffffffffffffffffffffffffffffffffff161415610b90576040517f08c379a0000000000000000000000000000000000000000000000000000000008152600401610b879061259d565b60405180910390fd5b8060056000610b9d610ff6565b73ffffffffffffffffffffffffffffffffffffffff1673ffffffffffffffffffffffffffffffffffffffff16815260200190815260200160002060008473ffffffffffffffffffffffffffffffffffffffff1673ffffffffffffffffffffffffffffffffffffffff16815260200190815260200160002060006101000a81548160ff0219169083151502179055508173ffffffffffffffffffffffffffffffffffffffff16610c4a610ff6565b73ffffffffffffffffffffffffffffffffffffffff167f17307eab39ab6107e8899845ad3d59bd9653f200f220920489ca2b5937696c3183604051610c8f91906124e5565b60405180910390a35050565b610cac610ca6610ff6565b836110b7565b610ceb576040517f08c379a0000000000000000000000000000000000000000000000000000000008152600401610ce2906126fd565b60405180910390fd5b610cf7848484846113f1565b50505050565b6060610d0882610f8a565b610d47576040517f08c379a0000000000000000000000000000000000000000000000000000000008152600401610d3e906126bd565b60405180910390fd5b6000610d5161144d565b90506000815111610d715760405180602001604052806000815250610d9c565b80610d7b84611464565b604051602001610d8c92919061245a565b6040516020818303038152906040525b915050919050565b600080610db16006611611565b9050600060405180606001604052808681526020018581526020013373ffffffffffffffffffffffffffffffffffffffff168152509050610df2600661161f565b8060076000848152602001908152602001600020600082015181600001556020820151816001019080519060200190610e2c9291906119b2565b5060408201518160020160006101000a81548173ffffffffffffffffffffffffffffffffffffffff021916908373ffffffffffffffffffffffffffffffffffffffff160217905550905050610e813383611635565b819250505092915050565b6000600560008473ffffffffffffffffffffffffffffffffffffffff1673ffffffffffffffffffffffffffffffffffffffff16815260200190815260200160002060008373ffffffffffffffffffffffffffffffffffffffff1673ffffffffffffffffffffffffffffffffffffffff16815260200190815260200160002060009054906101000a900460ff16905092915050565b60007f01ffc9a7000000000000000000000000000000000000000000000000000000007bffffffffffffffffffffffffffffffffffffffffffffffffffffffff1916827bffffffffffffffffffffffffffffffffffffffffffffffffffffffff1916149050919050565b60008073ffffffffffffffffffffffffffffffffffffffff166002600084815260200190815260200160002060009054906101000a900473ffffffffffffffffffffffffffffffffffffffff1673ffffffffffffffffffffffffffffffffffffffff1614159050919050565b600033905090565b816004600083815260200190815260200160002060006101000a81548173ffffffffffffffffffffffffffffffffffffffff021916908373ffffffffffffffffffffffffffffffffffffffff160217905550808273ffffffffffffffffffffffffffffffffffffffff166110718361091e565b73ffffffffffffffffffffffffffffffffffffffff167f8c5be1e5ebec7d5bd14f71427d1e84f3dd0314c0f7b2291e5b200ac8c7c3b92560405160405180910390a45050565b60006110c282610f8a565b611101576040517f08c379a00000000000000000000000000000000000000000000000000000000081526004016110f8906125dd565b60405180910390fd5b600061110c8361091e565b90508073ffffffffffffffffffffffffffffffffffffffff168473ffffffffffffffffffffffffffffffffffffffff16148061117b57508373ffffffffffffffffffffffffffffffffffffffff16611163846105b5565b73ffffffffffffffffffffffffffffffffffffffff16145b8061118c575061118b8185610e8c565b5b91505092915050565b8273ffffffffffffffffffffffffffffffffffffffff166111b58261091e565b73ffffffffffffffffffffffffffffffffffffffff161461120b576040517f08c379a00000000000000000000000000000000000000000000000000000000081526004016112029061269d565b60405180910390fd5b600073ffffffffffffffffffffffffffffffffffffffff168273ffffffffffffffffffffffffffffffffffffffff16141561127b576040517f08c379a00000000000000000000000000000000000000000000000000000000081526004016112729061257d565b60405180910390fd5b611286838383611803565b611291600082610ffe565b6001600360008573ffffffffffffffffffffffffffffffffffffffff1673ffffffffffffffffffffffffffffffffffffffff16815260200190815260200160002060008282546112e19190612893565b925050819055506001600360008473ffffffffffffffffffffffffffffffffffffffff1673ffffffffffffffffffffffffffffffffffffffff1681526020019081526020016000206000828254611338919061280c565b92505081905550816002600083815260200190815260200160002060006101000a81548173ffffffffffffffffffffffffffffffffffffffff021916908373ffffffffffffffffffffffffffffffffffffffff160217905550808273ffffffffffffffffffffffffffffffffffffffff168473ffffffffffffffffffffffffffffffffffffffff167fddf252ad1be2c89b69c2b068fc378daa952ba7f163c4a11628f55a4df523b3ef60405160405180910390a4505050565b6113fc848484611195565b61140884848484611808565b611447576040517f08c379a000000000000000000000000000000000000000000000000000000000815260040161143e9061253d565b60405180910390fd5b50505050565b606060405180602001604052806000815250905090565b606060008214156114ac576040518060400160405280600181526020017f3000000000000000000000000000000000000000000000000000000000000000815250905061160c565b600082905060005b600082146114de5780806114c7906129b9565b915050600a826114d79190612862565b91506114b4565b60008167ffffffffffffffff811115611520577f4e487b7100000000000000000000000000000000000000000000000000000000600052604160045260246000fd5b6040519080825280601f01601f1916602001820160405280156115525781602001600182028036833780820191505090505b5090505b600085146116055760018261156b9190612893565b9150600a8561157a9190612a02565b6030611586919061280c565b60f81b8183815181106115c2577f4e487b7100000000000000000000000000000000000000000000000000000000600052603260045260246000fd5b60200101907effffffffffffffffffffffffffffffffffffffffffffffffffffffffffffff1916908160001a905350600a856115fe9190612862565b9450611556565b8093505050505b919050565b600081600001549050919050565b6001816000016000828254019250508190555050565b600073ffffffffffffffffffffffffffffffffffffffff168273ffffffffffffffffffffffffffffffffffffffff1614156116a5576040517f08c379a000000000000000000000000000000000000000000000000000000000815260040161169c9061265d565b60405180910390fd5b6116ae81610f8a565b156116ee576040517f08c379a00000000000000000000000000000000000000000000000000000000081526004016116e59061255d565b60405180910390fd5b6116fa60008383611803565b6001600360008473ffffffffffffffffffffffffffffffffffffffff1673ffffffffffffffffffffffffffffffffffffffff168152602001908152602001600020600082825461174a919061280c565b92505081905550816002600083815260200190815260200160002060006101000a81548173ffffffffffffffffffffffffffffffffffffffff021916908373ffffffffffffffffffffffffffffffffffffffff160217905550808273ffffffffffffffffffffffffffffffffffffffff16600073ffffffffffffffffffffffffffffffffffffffff167fddf252ad1be2c89b69c2b068fc378daa952ba7f163c4a11628f55a4df523b3ef60405160405180910390a45050565b505050565b60006118298473ffffffffffffffffffffffffffffffffffffffff1661199f565b15611992578373ffffffffffffffffffffffffffffffffffffffff1663150b7a02611852610ff6565b8786866040518563ffffffff1660e01b81526004016118749493929190612499565b602060405180830381600087803b15801561188e57600080fd5b505af19250505080156118bf57506040513d601f19601f820116820180604052508101906118bc9190611dc7565b60015b611942573d80600081146118ef576040519150601f19603f3d011682016040523d82523d6000602084013e6118f4565b606091505b5060008151141561193a576040517f08c379a00000000000000000000000000000000000000000000000000000000081526004016119319061253d565b60405180910390fd5b805181602001fd5b63150b7a0260e01b7bffffffffffffffffffffffffffffffffffffffffffffffffffffffff1916817bffffffffffffffffffffffffffffffffffffffffffffffffffffffff191614915050611997565b600190505b949350505050565b600080823b905060008111915050919050565b8280546119be90612987565b90600052602060002090601f0160209004810192826119e05760008555611a27565b82601f106119f957805160ff1916838001178555611a27565b82800160010185558215611a27579182015b82811115611a26578251825591602001919060010190611a0b565b5b509050611a349190611a38565b5090565b5b80821115611a51576000816000905550600101611a39565b5090565b6000611a68611a6384612769565b612738565b905082815260208101848484011115611a8057600080fd5b611a8b848285612945565b509392505050565b6000611aa6611aa184612799565b612738565b905082815260208101848484011115611abe57600080fd5b611ac9848285612945565b509392505050565b600081359050611ae081612b00565b92915050565b600081359050611af581612b17565b92915050565b600081359050611b0a81612b2e565b92915050565b600081359050611b1f81612b45565b92915050565b600081519050611b3481612b45565b92915050565b600082601f830112611b4b57600080fd5b8135611b5b848260208601611a55565b91505092915050565b600082601f830112611b7557600080fd5b8135611b85848260208601611a93565b91505092915050565b600081359050611b9d81612b5c565b92915050565b600060208284031215611bb557600080fd5b6000611bc384828501611ad1565b91505092915050565b60008060408385031215611bdf57600080fd5b6000611bed85828601611ad1565b9250506020611bfe85828601611ad1565b9150509250929050565b600080600060608486031215611c1d57600080fd5b6000611c2b86828701611ad1565b9350506020611c3c86828701611ad1565b9250506040611c4d86828701611b8e565b9150509250925092565b60008060008060808587031215611c6d57600080fd5b6000611c7b87828801611ad1565b9450506020611c8c87828801611ad1565b9350506040611c9d87828801611b8e565b925050606085013567ffffffffffffffff811115611cba57600080fd5b611cc687828801611b3a565b91505092959194509250565b60008060408385031215611ce557600080fd5b6000611cf385828601611ad1565b9250506020611d0485828601611ae6565b9150509250929050565b60008060408385031215611d2157600080fd5b6000611d2f85828601611ad1565b9250506020611d4085828601611b8e565b9150509250929050565b60008060408385031215611d5d57600080fd5b6000611d6b85828601611afb565b925050602083013567ffffffffffffffff811115611d8857600080fd5b611d9485828601611b64565b9150509250929050565b600060208284031215611db057600080fd5b6000611dbe84828501611b10565b91505092915050565b600060208284031215611dd957600080fd5b6000611de784828501611b25565b91505092915050565b600060208284031215611e0257600080fd5b6000611e1084828501611b8e565b91505092915050565b611e22816128c7565b82525050565b611e31816128d9565b82525050565b611e40816128e5565b82525050565b6000611e51826127c9565b611e5b81856127df565b9350611e6b818560208601612954565b611e7481612aef565b840191505092915050565b6000611e8a826127d4565b611e9481856127f0565b9350611ea4818560208601612954565b611ead81612aef565b840191505092915050565b6000611ec3826127d4565b611ecd8185612801565b9350611edd818560208601612954565b80840191505092915050565b6000611ef66032836127f0565b91507f4552433732313a207472616e7366657220746f206e6f6e20455243373231526560008301527f63656976657220696d706c656d656e74657200000000000000000000000000006020830152604082019050919050565b6000611f5c601c836127f0565b91507f4552433732313a20746f6b656e20616c7265616479206d696e746564000000006000830152602082019050919050565b6000611f9c6024836127f0565b91507f4552433732313a207472616e7366657220746f20746865207a65726f2061646460008301527f72657373000000000000000000000000000000000000000000000000000000006020830152604082019050919050565b60006120026019836127f0565b91507f4552433732313a20617070726f766520746f2063616c6c6572000000000000006000830152602082019050919050565b6000612042600f836127f0565b91507f4e6f7420796f7572206c6f6773202100000000000000000000000000000000006000830152602082019050919050565b6000612082602c836127f0565b91507f4552433732313a206f70657261746f7220717565727920666f72206e6f6e657860008301527f697374656e7420746f6b656e00000000000000000000000000000000000000006020830152604082019050919050565b60006120e86038836127f0565b91507f4552433732313a20617070726f76652063616c6c6572206973206e6f74206f7760008301527f6e6572206e6f7220617070726f76656420666f7220616c6c00000000000000006020830152604082019050919050565b600061214e602a836127f0565b91507f4552433732313a2062616c616e636520717565727920666f7220746865207a6560008301527f726f2061646472657373000000000000000000000000000000000000000000006020830152604082019050919050565b60006121b46029836127f0565b91507f4552433732313a206f776e657220717565727920666f72206e6f6e657869737460008301527f656e7420746f6b656e00000000000000000000000000000000000000000000006020830152604082019050919050565b600061221a6020836127f0565b91507f4552433732313a206d696e7420746f20746865207a65726f20616464726573736000830152602082019050919050565b600061225a602c836127f0565b91507f4552433732313a20617070726f76656420717565727920666f72206e6f6e657860008301527f697374656e7420746f6b656e00000000000000000000000000000000000000006020830152604082019050919050565b60006122c06029836127f0565b91507f4552433732313a207472616e73666572206f6620746f6b656e2074686174206960008301527f73206e6f74206f776e00000000000000000000000000000000000000000000006020830152604082019050919050565b6000612326602f836127f0565b91507f4552433732314d657461646174613a2055524920717565727920666f72206e6f60008301527f6e6578697374656e7420746f6b656e00000000000000000000000000000000006020830152604082019050919050565b600061238c6021836127f0565b91507f4552433732313a20617070726f76616c20746f2063757272656e74206f776e6560008301527f72000000000000000000000000000000000000000000000000000000000000006020830152604082019050919050565b60006123f26031836127f0565b91507f4552433732313a207472616e736665722063616c6c6572206973206e6f74206f60008301527f776e6572206e6f7220617070726f7665640000000000000000000000000000006020830152604082019050919050565b6124548161293b565b82525050565b60006124668285611eb8565b91506124728284611eb8565b91508190509392505050565b60006020820190506124936000830184611e19565b92915050565b60006080820190506124ae6000830187611e19565b6124bb6020830186611e19565b6124c8604083018561244b565b81810360608301526124da8184611e46565b905095945050505050565b60006020820190506124fa6000830184611e28565b92915050565b60006020820190506125156000830184611e37565b92915050565b600060208201905081810360008301526125358184611e7f565b905092915050565b6000602082019050818103600083015261255681611ee9565b9050919050565b6000602082019050818103600083015261257681611f4f565b9050919050565b6000602082019050818103600083015261259681611f8f565b9050919050565b600060208201905081810360008301526125b681611ff5565b9050919050565b600060208201905081810360008301526125d681612035565b9050919050565b600060208201905081810360008301526125f681612075565b9050919050565b60006020820190508181036000830152612616816120db565b9050919050565b6000602082019050818103600083015261263681612141565b9050919050565b60006020820190508181036000830152612656816121a7565b9050919050565b600060208201905081810360008301526126768161220d565b9050919050565b600060208201905081810360008301526126968161224d565b9050919050565b600060208201905081810360008301526126b6816122b3565b9050919050565b600060208201905081810360008301526126d681612319565b9050919050565b600060208201905081810360008301526126f68161237f565b9050919050565b60006020820190508181036000830152612716816123e5565b9050919050565b6000602082019050612732600083018461244b565b92915050565b6000604051905081810181811067ffffffffffffffff8211171561275f5761275e612ac0565b5b8060405250919050565b600067ffffffffffffffff82111561278457612783612ac0565b5b601f19601f8301169050602081019050919050565b600067ffffffffffffffff8211156127b4576127b3612ac0565b5b601f19601f8301169050602081019050919050565b600081519050919050565b600081519050919050565b600082825260208201905092915050565b600082825260208201905092915050565b600081905092915050565b60006128178261293b565b91506128228361293b565b9250827fffffffffffffffffffffffffffffffffffffffffffffffffffffffffffffffff0382111561285757612856612a33565b5b828201905092915050565b600061286d8261293b565b91506128788361293b565b92508261288857612887612a62565b5b828204905092915050565b600061289e8261293b565b91506128a98361293b565b9250828210156128bc576128bb612a33565b5b828203905092915050565b60006128d28261291b565b9050919050565b60008115159050919050565b6000819050919050565b60007fffffffff0000000000000000000000000000000000000000000000000000000082169050919050565b600073ffffffffffffffffffffffffffffffffffffffff82169050919050565b6000819050919050565b82818337600083830152505050565b60005b83811015612972578082015181840152602081019050612957565b83811115612981576000848401525b50505050565b6000600282049050600182168061299f57607f821691505b602082108114156129b3576129b2612a91565b5b50919050565b60006129c48261293b565b91507fffffffffffffffffffffffffffffffffffffffffffffffffffffffffffffffff8214156129f7576129f6612a33565b5b600182019050919050565b6000612a0d8261293b565b9150612a188361293b565b925082612a2857612a27612a62565b5b828206905092915050565b7f4e487b7100000000000000000000000000000000000000000000000000000000600052601160045260246000fd5b7f4e487b7100000000000000000000000000000000000000000000000000000000600052601260045260246000fd5b7f4e487b7100000000000000000000000000000000000000000000000000000000600052602260045260246000fd5b7f4e487b7100000000000000000000000000000000000000000000000000000000600052604160045260246000fd5b6000601f19601f8301169050919050565b612b09816128c7565b8114612b1457600080fd5b50565b612b20816128d9565b8114612b2b57600080fd5b50565b612b37816128e5565b8114612b4257600080fd5b50565b612b4e816128ef565b8114612b5957600080fd5b50565b612b658161293b565b8114612b7057600080fd5b5056fea2646970667358221220beb033963faecd530fea5d63e7895cfa5a1384f647b9c33e6fbe57e530f3f11364736f6c63430008000033",
  "immutableReferences": {},
  "source": "pragma solidity ^0.8.0;\r\n\r\nimport \"@openzeppelin/contracts/token/ERC721/ERC721.sol\";\r\nimport \"@openzeppelin/contracts/utils/Counters.sol\";\r\n\r\ncontract PrintGo is ERC721 {\r\n    struct Log {\r\n        bytes32 ipAddress;\r\n        string log;\r\n        address sender;\r\n    }\r\n    using Address for address;\r\n    using Counters for Counters.Counter;\r\n    using Strings for uint256;\r\n    Counters.Counter private _tokenIds;\r\n    mapping(uint256 => Log) private logs;\r\n    address owner;\r\n\r\n    constructor() public ERC721(\"PrintGo\", \"PTG\") {\r\n        owner = msg.sender;\r\n    }\r\n\r\n    function declareLog(bytes32 _ipAddress, string memory _log) public returns (uint256) {\r\n        uint256 tokenId = _tokenIds.current();\r\n        Log memory token = Log(_ipAddress, _log, msg.sender);\r\n        _tokenIds.increment();\r\n        logs[tokenId] = token;\r\n        _mint(msg.sender, tokenId);\r\n        return tokenId;\r\n    }\r\n\r\n    function getLog(uint256 _tokenId) public returns (string memory) {\r\n        require(logs[_tokenId].sender == msg.sender, \"Not your logs !\");\r\n        return logs[_tokenId].log;\r\n    }\r\n\r\n    function getIp(uint256 _tokenId) public returns (bytes32) {\r\n        require(logs[_tokenId].sender == msg.sender, \"Not your logs !\");\r\n        return logs[_tokenId].ipAddress;\r\n    }\r\n}\r\n",
  "sourcePath": "C:/Users/ybenh/Desktop/print'n'go2/solidity/contracts/PrintGo.sol",
  "compiler": {
    "name": "solc",
    "version": "0.8.0+commit.c7dfd78e.Emscripten.clang"
  },
  "schemaVersion": "3.4.1",
  "updatedAt": "2021-07-09T10:31:34.315Z",
  "networkType": "ethereum",
  "devdoc": {
    "kind": "dev",
    "methods": {
      "approve(address,uint256)": {
        "details": "See {IERC721-approve}."
      },
      "balanceOf(address)": {
        "details": "See {IERC721-balanceOf}."
      },
      "getApproved(uint256)": {
        "details": "See {IERC721-getApproved}."
      },
      "isApprovedForAll(address,address)": {
        "details": "See {IERC721-isApprovedForAll}."
      },
      "name()": {
        "details": "See {IERC721Metadata-name}."
      },
      "ownerOf(uint256)": {
        "details": "See {IERC721-ownerOf}."
      },
      "safeTransferFrom(address,address,uint256)": {
        "details": "See {IERC721-safeTransferFrom}."
      },
      "safeTransferFrom(address,address,uint256,bytes)": {
        "details": "See {IERC721-safeTransferFrom}."
      },
      "setApprovalForAll(address,bool)": {
        "details": "See {IERC721-setApprovalForAll}."
      },
      "supportsInterface(bytes4)": {
        "details": "See {IERC165-supportsInterface}."
      },
      "symbol()": {
        "details": "See {IERC721Metadata-symbol}."
      },
      "tokenURI(uint256)": {
        "details": "See {IERC721Metadata-tokenURI}."
      },
      "transferFrom(address,address,uint256)": {
        "details": "See {IERC721-transferFrom}."
      }
    },
    "version": 1
  },
  "userdoc": {
    "kind": "user",
    "methods": {},
    "version": 1
  }
}